:100000000C9446000C9465000C9465000C946500FB
:100010000C9465000C9465000C9465000C946500CC
:100020000C9465000C9465000C9465000C946500BC
:100030000C9465000C94DE000C9465000C94650033
:100040000C9465000C9465000C9465000C9465009C
:100050000C9465000C9465000C9465000C9465008C
:100060000C9465000C9465000C9465000C9465007C
:100070000C9465000C9465000C9465000C9465006C
:100080000C9465000C9465000C94650011241FBE4F
:10009000CFEFD0E4DEBFCDBF11E0A0E0B1E0E2EBF6
:1000A000FAE000E00BBF02C007900D92AE31B1073D
:1000B000D9F721E0AEE1B1E001C01D92A734B2074B
:1000C000E1F70E9497030C9457050C940000CF931E
:1000D000DF9300D01F92CDB7DEB789837B836A831D
:1000E00089818A3031F48A819B81BC018DE00E9434
:1000F000670080EC90E0FC018081882F90E08072A6
:100100009927892BB1F386EC90E02981FC012083AB
:1001100080E090E00F900F900F90DF91CF910895C5
:10012000CF93DF93CDB7DEB781E890E02BE0FC0101
:10013000208388E890E02DE730E0FC0131832083C4
:100140008FE690E022E0FC01208384E890E0FC014F
:100150001182108280910E0190910F01A0911001E7
:10016000B091110180931F0190932001A093210170
:10017000B09322018FE590E02FE530E0F901208176
:100180002068FC0120830000DF91CF910895CF9378
:10019000DF93CDB7DEB781E890E0FC01108200006C
:1001A000DF91CF910895CF93DF93CDB7DEB781E094
:1001B00080931E010000DF91CF9108951F920F924E
:1001C00000905F000F92112400905B000F922F931C
:1001D0003F934F935F936F937F938F939F93AF93CF
:1001E000BF93EF93FF93CF93DF93CDB7DEB78091AB
:1001F0001F0190912001A0912101B091220101974E
:10020000A109B10980931F0190932001A0932101BE
:10021000B093220180911F0190912001A0912101B2
:10022000B0912201892B8A2B8B2B91F40E94D30051
:1002300080910E0190910F01A0911001B0911101D8
:1002400080931F0190932001A0932101B09322017C
:100250000000DF91CF91FF91EF91BF91AF919F91FE
:100260008F917F916F915F914F913F912F910F905F
:1002700000925B000F9000925F000F901F90189506
:10028000CF93DF9300D000D0CDB7DEB769837A83F8
:100290008B839C8389819A81AB81BC8180930E0181
:1002A00090930F01A0931001B093110180910E0162
:1002B00090910F01A0911001B091110180931F0145
:1002C00090932001A0932101B093220100000F9090
:1002D0000F900F900F90DF91CF910895CF93DF9300
:1002E00000D0CDB7DEB789836A838981882F90E0FB
:1002F0002A81222F30E002C0959587952A95E2F752
:100300008170992721E0892B09F420E0822F0F903A
:100310000F90DF91CF910895CF93DF93CDB7DEB7E4
:1003200088E290E02FEEFC012083000086E290E05E
:10033000FC01808160E00E946E01882311F481E35A
:10034000B8C086E290E0FC01808161E00E946E010D
:10035000882311F484E3ADC086E290E0FC01808143
:1003600062E00E946E01882311F487E3A2C086E256
:1003700090E0FC01808163E00E946E01882311F40B
:100380008AE297C088E290E02FEDFC012083000014
:1003900086E290E0FC01808160E00E946E0188238B
:1003A00011F482E386C086E290E0FC01808161E086
:1003B0000E946E01882311F485E37BC086E290E001
:1003C000FC01808162E00E946E01882311F488E3C1
:1003D00070C086E290E0FC01808163E00E946E01C3
:1003E000882311F480E365C088E290E02FEBFC01E4
:1003F0002083000086E290E0FC01808160E00E94A2
:100400006E01882311F483E354C086E290E0FC017E
:10041000808161E00E946E01882311F486E349C067
:1004200086E290E0FC01808162E00E946E018823F8
:1004300011F489E33EC086E290E0FC01808163E034
:100440000E946E01882311F483E233C088E290E0B9
:100450002FE0FC012083000086E290E0FC01808117
:1004600060E00E946E01882311F481E422C086E2DC
:1004700090E0FC01808161E00E946E01882311F40C
:1004800082E417C086E290E0FC01808162E00E9475
:100490006E01882311F483E40CC086E290E0FC0135
:1004A000808163E00E946E01882311F484E401C01E
:1004B00080E0DF91CF910895CF93DF9300D0CDB747
:1004C000DEB79A8389830E948C01809324018981FD
:1004D0009A8181309105C9F0823091051CF4892BF5
:1004E00041F066C08230910501F1039709F448C0DC
:1004F0005FC080912401833229F481E090E09A83E7
:10050000898359C01A82198256C080912401882398
:1005100039F41092250182E090E09A8389834BC0E0
:1005200081E090E09A83898346C0809124018332E0
:1005300029F481E090E09A8389833DC08091240171
:10054000882329F482E090E09A83898334C08091E3
:100550002501882F90E08E5E9E4FFC019081809156
:100560002401981751F4809125018F5F8093250114
:1005700083E090E09A8389831EC01A8219821BC08F
:1005800080912401882379F480912501853030F011
:100590001A82198281E0809323010DC082E090E0ED
:1005A0009A83898308C083E090E09A83898303C09B
:1005B0001A821982000089819A810F900F90DF9131
:1005C000CF910895CF93DF9300D01F92CDB7DEB7C0
:1005D0009B838A8383E290E0FC0180818095807810
:1005E00089838A819B81009719F0019761F016C079
:1005F0008981803829F481E090E09B838A8311C04F
:100600001B821A820EC08981803829F481E090E033
:100610009B838A8306C01B821A8203C01B821A82B4
:1006200000008A819B81009729F0019721F41092A4
:10063000230101C000008A819B810F900F900F90D1
:10064000DF91CF910895CF93DF9300D01F92CDB764
:10065000DEB79B838A838A819B81892B19F41B8255
:100660001A8203C01B821A8200008A819B81892B17
:1006700021F4809123018983000085E290E02981A3
:10068000FC0120838A819B810F900F900F90DF9156
:10069000CF910895CF93DF93CDB7DEB72C970FB6E8
:1006A000F894DEBF0FBECDBF6D837E838F839887A6
:1006B00029873A874B875C878D819E81AF81B8857A
:1006C00029853A854B855C85BC01CD010E943505A5
:1006D000DC01CB0189839A83AB83BC8389819A81B6
:1006E000AB81BC81892B8A2B8B2B29F489859A8538
:1006F000AB85BC8511C089859A85AB85BC858D830A
:100700009E83AF83B88789819A81AB81BC818987B9
:100710009A87AB87BC87D0CFBC01CD012C960FB692
:10072000F894DEBF0FBECDBFDF91CF9108950F9338
:100730001F93CF93DF93CDB7DEB72F970FB6F89403
:10074000DEBF0FBECDBF81E290E0FC01108282E2ED
:1007500090E02FEFFC01208384E290E02FE7FC0182
:10076000208385E290E020E8FC01208387E290E08E
:1007700020EFFC01208388E290E02FE0FC01208341
:1007800086E0E7E1F1E0DE011A9601900D928A958C
:10079000E1F783E090E098878F838FEF89878985E1
:1007A0008093260182E390E0A0E0B0E080932701EF
:1007B00090932801A0932901B0932A0180912701E9
:1007C00090912801A0912901B0912A0180932B01D9
:1007D00090932C01A0932D01B0932E018CE592E013
:1007E0009093300180932F0189858093310182E3BA
:1007F00090E0A0E0B0E08093320190933301A093A9
:100800003401B09335018091320190913301A09170
:100810003401B09135018093360190933701A09354
:100820003801B093390182EE92E090933B018093BE
:100830003A01898580933C018AE090E0A0E0B0E035
:1008400080933D0190933E01A0933F01B0934001FE
:1008500080913D0190913E01A0913F01B0914001F6
:100860008093410190934201A0934301B0934401CE
:1008700083E293E090934601809345018A859B85AE
:10088000FC0181819281A381B4818B839C83AD83A0
:10089000BE831A82198225C089819A81880F991F87
:1008A0009E012F5F3F4F820F931F0996FC018081AD
:1008B0009181FC0121813281438154818B819C8112
:1008C000AD81BE81BC01CD010E944A03DC01CB0198
:1008D0008B839C83AD83BE8389819A8101969A83A1
:1008E000898329813A818F81988528173907A0F259
:1008F0008B819C81AD81BE81BC01CD010E944001F4
:100900000E9490001A821982A0C089819A81880F62
:10091000991F9E012F5F3F4F820F931F0996FC0185
:1009200080819181FC0125813681478150858981B3
:100930009A81880F991FBE016F5F7F4F860F971FA7
:100940000996FC0180819181FC0181819281A381C2
:10095000B481281739074A075B0709F045C0898128
:100960009A81880F991F9E012F5F3F4F820F931F1F
:100970000996FC010081118189819A81880F991F54
:100980009E012F5F3F4F820F931F0996FC018081CC
:100990009181FC012185328589819A81880F991F77
:1009A000AE014F5F5F4F840F951F0996FC01808158
:1009B0009181FC018081082E000C990BF9010995A9
:1009C000F801808389819A81880F991F9E012F5F8A
:1009D0003F4F820F931F0996FC0180819181FC019A
:1009E000158216821782108689819A81880F991F35
:1009F0009E012F5F3F4F820F931F0996FC0160817C
:100A0000718189819A81880F991F9E012F5F3F4FC5
:100A1000820F931F0996FC0180819181FC01258141
:100A20003681478150858B819C81AD81BE81820F4B
:100A3000931FA41FB51FFB0185839683A783B087EF
:100A400089819A8101969A83898329813A818F814C
:100A500098852817390708F458CF000080911E01A7
:100A60008823E1F310921E014DCFA1E21A2EAA1B9A
:100A7000BB1BFD010DC0AA1FBB1FEE1FFF1FA2174E
:100A8000B307E407F50720F0A21BB30BE40BF50B4B
:100A9000661F771F881F991F1A9469F760957095D4
:100AA000809590959B01AC01BD01CF010895F8940C
:020AB000FFCF76
:100AB20000000002000000006700000000000100CA
:0E0AC20000003132333435260131013C010091
:00000001FF
