:100000000C9446000C9465000C9465000C946500FB
:100010000C9465000C9465000C9465000C946500CC
:100020000C9465000C9465000C9465000C946500BC
:100030000C9465000C94DE000C9465000C94650033
:100040000C9465000C9465000C9465000C9465009C
:100050000C9465000C9465000C9465000C9465008C
:100060000C9465000C9465000C9465000C9465007C
:100070000C9465000C9465000C9465000C9465006C
:100080000C9465000C9465000C94650011241FBE4F
:10009000CFEFD0E4DEBFCDBF11E0A0E0B1E0ECEEE9
:1000A000F2E100E00BBF02C007900D92AE34B10741
:1000B000D9F721E0AEE4B1E001C01D92AC38B2073F
:1000C000E1F70E94F9050C9474090C940000CF9399
:1000D000DF9300D01F92CDB7DEB789837B836A831D
:1000E00089818A3031F48A819B81BC018DE00E9434
:1000F000670080EC90E0FC018081882F90E08072A6
:100100009927892BB1F386EC90E02981FC012083AB
:1001100080E090E00F900F900F90DF91CF910895C5
:10012000CF93DF93CDB7DEB781E890E02BE0FC0101
:10013000208388E890E02DE730E0FC0131832083C4
:100140008FE690E022E0FC01208384E890E0FC014F
:100150001182108280910E0190910F01A0911001E7
:10016000B091110180934F0190935001A0935101E0
:10017000B09352018FE590E02FE530E0F901208146
:100180002068FC0120830000DF91CF910895CF9378
:10019000DF93CDB7DEB781E890E0FC01108200006C
:1001A000DF91CF910895CF93DF93CDB7DEB781E094
:1001B00080934E010000DF91CF9108951F920F921E
:1001C00000905F000F92112400905B000F922F931C
:1001D0003F934F935F936F937F938F939F93AF93CF
:1001E000BF93EF93FF93CF93DF93CDB7DEB78091AB
:1001F0004F0190915001A0915101B091520101978E
:10020000A109B10980934F0190935001A09351012E
:10021000B093520180914F0190915001A0915101F2
:10022000B0915201892B8A2B8B2B91F40E94D30021
:1002300080910E0190910F01A0911001B0911101D8
:1002400080934F0190935001A0935101B0935201BC
:100250000000DF91CF91FF91EF91BF91AF919F91FE
:100260008F917F916F915F914F913F912F910F905F
:1002700000925B000F9000925F000F901F90189506
:10028000CF93DF9300D000D0CDB7DEB769837A83F8
:100290008B839C8389819A81AB81BC8180930E0181
:1002A00090930F01A0931001B093110180910E0162
:1002B00090910F01A0911001B091110180934F0115
:1002C00090935001A0935101B093520100000F9000
:1002D0000F900F900F90DF91CF910895CF93DF9300
:1002E00000D0CDB7DEB789836A838981882F90E0FB
:1002F0002A81222F30E002C0959587952A95E2F752
:100300008170992721E0892B09F420E0822F0F903A
:100310000F90DF91CF9108950F931F93CF93DF93A9
:1003200000D000D0CDB7DEB769837A838B839C83FE
:100330008091550190915601A0915701B0915801BB
:100340009C01AD0169817A818B819C810E94E007CB
:10035000882309F477C020E030E0A90169817A811F
:100360008B819C810E94E007882351F481E990E011
:1003700021E930E0F90120812870FC01208309C0C7
:1003800081E990E021E930E0F90120812360FC015E
:10039000208328E539E344E75FE369817A818B8133
:1003A0009C810E94E007882344F488E990E02FEFC5
:1003B0003FEFFC013183208334C020E034E244EF7E
:1003C00056E469817A818B819C810E94020918160A
:1003D00034F488E990E0FC011182108222C008E91F
:1003E00010E020E030E040E053E469817A818B81C5
:1003F0009C810E940709DC01CB019C01AD0160E0FA
:1004000074E284EF9AE40E94E507DC01CB01BC01B1
:10041000CD010E945708DC01CB010197F8019183BF
:10042000808384E990E0FC011182108289819A81A5
:10043000AB81BC818093550190935601A0935701E5
:10044000B093580100000F900F900F900F90DF9124
:10045000CF911F910F910895CF93DF93CDB7DEB762
:1004600080E990E020E4FC01208381E990E02BE02A
:10047000FC01208360E070E0CB010E948C01000051
:10048000DF91CF910895CF93DF93CDB7DEB780E9A9
:1004900090E0FC01108281E990E0FC0110820000F4
:1004A000DF91CF910895CF93DF93CDB7DEB788E288
:1004B00090E02FEEFC012083000086E290E0FC013A
:1004C000808160E00E946E01882311F481E3B8C04E
:1004D00086E290E0FC01808161E00E946E01882349
:1004E00011F484E3ADC086E290E0FC01808162E01B
:1004F0000E946E01882311F487E3A2C086E290E097
:10050000FC01808163E00E946E01882311F48AE27D
:1005100097C088E290E02FEDFC012083000086E286
:1005200090E0FC01808160E00E946E01882311F45C
:1005300082E386C086E290E0FC01808161E00E9457
:100540006E01882311F485E37BC086E290E0FC0114
:10055000808162E00E946E01882311F488E370C0FC
:1005600086E290E0FC01808163E00E946E018823B6
:1005700011F480E365C088E290E02FEBFC0120835A
:10058000000086E290E0FC01808160E00E946E0144
:10059000882311F483E354C086E290E0FC0180815B
:1005A00061E00E946E01882311F486E349C086E26F
:1005B00090E0FC01808162E00E946E01882311F4CA
:1005C00089E33EC086E290E0FC01808163E00E9406
:1005D0006E01882311F483E233C088E290E02FE0BB
:1005E000FC012083000086E290E0FC01808160E055
:1005F0000E946E01882311F481E422C086E290E01B
:10060000FC01808161E00E946E01882311F482E484
:1006100017C086E290E0FC01808162E00E946E01DA
:10062000882311F483E40CC086E290E0FC01808111
:1006300063E00E946E01882311F484E401C080E02D
:10064000DF91CF910895CF93DF9300D0CDB7DEB780
:100650009A8389830E9453028093590189819A81E8
:1006600081309105C9F0823091051CF4892B41F04D
:1006700066C08230910501F1039709F448C05FC05C
:1006800080915901833229F481E090E09A83898333
:1006900059C01A82198256C080915901882339F4B1
:1006A00010925A0182E090E09A8389834BC081E0E6
:1006B00090E09A83898346C080915901833229F45E
:1006C00081E090E09A8389833DC08091590188231D
:1006D00029F482E090E09A83898334C080915A01A2
:1006E000882F90E08E5E9E4FFC0190818091590191
:1006F000981751F480915A018F5F80935A0183E0DB
:1007000090E09A8389831EC01A8219821BC080914F
:100710005901882379F480915A01853030F01A828A
:10072000198281E0809353010DC082E090E09A83AA
:10073000898308C083E090E09A83898303C01A828A
:100740001982000089819A810F900F90DF91CF91DB
:100750000895CF93DF9300D01F92CDB7DEB79B8370
:100760008A8383E290E0FC01808180958078898390
:100770008A819B81009719F0019761F016C08981E9
:10078000803829F481E090E09B838A8311C01B822A
:100790001A820EC08981803829F481E090E09B8321
:1007A0008A8306C01B821A8203C01B821A82000041
:1007B0008A819B81009729F0019721F410925301BF
:1007C00001C000008A819B810F900F900F90DF91F4
:1007D000CF910895CF93DF93CDB7DEB7CA54D10937
:1007E0000FB6F894DEBF0FBECDBF80E2E7E1F1E0C7
:1007F000DE01139601900D928A95E1F787E090E073
:100800009A8389832EE0CE018396FC01322F1192C8
:100810003A95E9F781E090E09EA38DA382E090E015
:1008200098A78FA382E090E09CA78BA782E090E03E
:100830009EA78DA78EE0E7E3F1E0DE01D19601905F
:100840000D928A95E1F721E030E0CE01CF96FC01D0
:1008500031832083CE018F5B9F4FFC011182108278
:10086000CE018D5B9F4FFC0111821082CE018B5B0C
:100870009F4FFC0111821082CE01895B9F4FFC01CA
:1008800011821082CE01875B9F4FFC011182108282
:1008900080915B01882309F0A8C080915C01909150
:1008A0005D01880F991F9E012F5F3F4F820F931F9D
:1008B000C096FC012081318180915E0190915F01A1
:1008C0008217930760F580915C0190915D01880F1C
:1008D000991F9E012F5F3F4F820F931F8296FC014D
:1008E00080819181880F991F880F991F9E012F5F2A
:1008F0003F4F820F931F0296FC0180819181A2815C
:10090000B381BC01CD010E948C0180915E01909168
:100910005F01019690935F0180935E0166C0109223
:100920005F0110925E0189819A819C0121503109F9
:1009300080915C0190915D018217930708F04AC095
:1009400080915C0190915D01880F991F9E012F5F3E
:100950003F4F820F931FCE96FC0180819181892B9E
:1009600021F081E080935B0140C080915C01909117
:100970005D01019690935D0180935C0180915C0123
:1009800090915D01880F991F9E012F5F3F4F820F4D
:10099000931F8296FC0180819181880F991F880F97
:1009A000991F9E012F5F3F4F820F931F0296FC01FC
:1009B00080819181A281B381BC01CD010E948C0113
:1009C00080915E0190915F01019690935F01809309
:1009D0005E010BC01092540110925D0110925C01F7
:1009E00060E070E0CB010E948C0180915B01882364
:1009F00099F160E070E0CB010E948C0180915E0172
:100A000090915F01019690935F0180935E018091C8
:100A10005C0190915D01880F991F9E012F5F3F4FF0
:100A2000820F931FCE96FC012081318180915E015F
:100A300090915F012817390779F410925B0180913A
:100A40005C0190915D01019690935D0180935C0142
:100A500010925F0110925E010000C65BDF4F0FB67F
:100A6000F894DEBF0FBECDBFDF91CF910895CF9335
:100A7000DF9300D01F92CDB7DEB79B838A8380E2DD
:100A800090E0FC0180818095807889838A819B81B8
:100A9000009719F0019779F01DC08981882341F0F2
:100AA00081E090E09B838A8381E08093540115C0AC
:100AB0001B821A8212C08981882339F480915401E3
:100AC000882319F41B821A8208C081E090E09B837E
:100AD0008A8303C01B821A8200008A819B8100974F
:100AE00049F0019751F480915401882329F00E9424
:100AF000EA0302C0000001C000008A819B810F90C0
:100B00000F900F90DF91CF910895CF93DF9300D096
:100B10001F92CDB7DEB79B838A838A819B81892B05
:100B200019F41B821A8203C01B821A8200008A8178
:100B30009B81892B21F4809153018983000085E2F8
:100B400090E02981FC0120838A819B810F900F9086
:100B50000F90DF91CF910895CF93DF93CDB7DEB79C
:100B60002C970FB6F894DEBF0FBECDBF6D837E838A
:100B70008F83988729873A874B875C878D819E81F1
:100B8000AF81B88529853A854B855C85BC01CD014F
:100B90000E94BE07DC01CB0189839A83AB83BC83AF
:100BA00089819A81AB81BC81892B8A2B8B2B29F47B
:100BB00089859A85AB85BC8511C089859A85AB8569
:100BC000BC858D839E83AF83B88789819A81AB81F1
:100BD000BC8189879A87AB87BC87D0CFBC01CD0108
:100BE0002C960FB6F894DEBF0FBECDBFDF91CF912C
:100BF00008950F931F93CF93DF93CDB7DEB761971F
:100C00000FB6F894DEBF0FBECDBF81E290E0FC01CD
:100C1000108282E290E02FEFFC01208384E290E0DA
:100C20002FE7FC01208385E290E020E8FC0120838F
:100C300087E290E020EFFC01208388E290E02FE043
:100C4000FC01208388E0E5E4F1E0DE011A960190E2
:100C50000D928A95E1F784E090E098878F838FEF7B
:100C6000898789858093600182E390E0A0E0B0E00D
:100C70008093610190936201A0936301B09364013A
:100C80008091610190916201A0916301B091640132
:100C90008093650190936601A0936701B09368010A
:100CA00083E293E090936A01809369018985809340
:100CB0006B0182E390E0A0E0B0E080936C01909340
:100CC0006D01A0936E01B0936F0180916C019091C2
:100CD0006D01A0916E01B0916F01809370019093AE
:100CE0007101A0937201B093730189EA93E090932C
:100CF00075018093740189858093760188EC90E07A
:100D0000A0E0B0E08093770190937801A0937901FF
:100D1000B0937A018091770190917801A091790147
:100D2000B0917A0180937B0190937C01A0937D0127
:100D3000B0937E0187E395E09093800180937F01DB
:100D40008985809381018AE090E0A0E0B0E0809303
:100D5000820190938301A0938401B09385018091D7
:100D6000820190918301A0918401B09185018093CB
:100D7000860190938701A0938801B093890185E84B
:100D800095E090938B0180938A018A859B85FC0175
:100D900081819281A381B4818B839C83AD83BE8347
:100DA0001A82198225C089819A81880F991F9E0114
:100DB0002F5F3F4F820F931F0996FC018081918125
:100DC000FC0121813281438154818B819C81AD81E1
:100DD000BE81BC01CD010E94AC05DC01CB018B833F
:100DE0009C83AD83BE8389819A8101969A8389838E
:100DF00029813A818F81988528173907A0F28B8144
:100E00009C81AD81BE81BC01CD010E9440010E9448
:100E100090000E942C021A821982A0C089819A81B6
:100E2000880F991F9E012F5F3F4F820F931F0996D6
:100E3000FC0180819181FC012581368147815085AB
:100E400089819A81880F991FBE016F5F7F4F860F3E
:100E5000971F0996FC0180819181FC01818192811B
:100E6000A381B481281739074A075B0709F045C0F9
:100E700089819A81880F991F9E012F5F3F4F820FB2
:100E8000931F0996FC010081118189819A81880F45
:100E9000991F9E012F5F3F4F820F931F0996FC0100
:100EA00080819181FC012185328589819A81880F19
:100EB000991FAE014F5F5F4F840F951F0996FC018C
:100EC00080819181FC018081082E000C990BF90131
:100ED0000995F801808389819A81880F991F9E0165
:100EE0002F5F3F4F820F931F0996FC0180819181F4
:100EF000FC01158216821782108689819A81880FDB
:100F0000991F9E012F5F3F4F820F931F0996FC018F
:100F10006081718189819A81880F991F9E012F5F5D
:100F20003F4F820F931F0996FC0180819181FC0144
:100F300025813681478150858B819C81AD81BE8121
:100F4000820F931FA41FB51FFB0185839683A78380
:100F5000B08789819A8101969A83898329813A8110
:100F60008F8198852817390708F458CF00008091A1
:100F70004E018823E1F310924E014DCFA1E21A2ECB
:100F8000AA1BBB1BFD010DC0AA1FBB1FEE1FFF1F2D
:100F9000A217B307E407F50720F0A21BB30BE40B7D
:100FA000F50B661F771F881F991F1A9469F76095C4
:100FB0007095809590959B01AC01BD01CF0108957E
:100FC0000E948D0808F481E008950E94F9070C94AE
:100FD000C8080E94C10858F00E94BA0840F029F4DD
:100FE0005F3F29F00C94B10851110C94FC080C944B
:100FF000B7080E94D90868F39923B1F3552391F3F8
:10100000951B550BBB27AA2762177307840738F077
:101010009F5F5F4F220F331F441FAA1FA9F335D0D4
:101020000E2E3AF0E0E832D091505040E695001C88
:10103000CAF72BD0FE2F29D0660F771F881FBB1F42
:10104000261737074807AB07B0E809F0BB0B802D20
:10105000BF01FF2793585F4F3AF09E3F510578F04C
:101060000C94B1080C94FC085F3FE4F3983ED4F371
:10107000869577956795B795F7959F5FC9F7880F20
:10108000911D9695879597F90895E1E0660F771F72
:10109000881FBB1F621773078407BA0720F0621B03
:1010A000730B840BBA0BEE1F88F7E09508950E942E
:1010B0005E086894B1110C94FC0808950E94E10840
:1010C00088F09F5798F0B92F9927B751B0F0E1F009
:1010D000660F771F881F991F1AF0BA95C9F714C0B9
:1010E000B13091F00E94FB08B1E008950C94FB0828
:1010F000672F782F8827B85F39F0B93FCCF38695F2
:1011000077956795B395D9F73EF49095809570954E
:1011100061957F4F8F4F9F4F0895990F0008550F8E
:10112000AA0BE0E8FEEF16161706E807F907C0F06D
:1011300012161306E407F50798F0621B730B840B75
:10114000950B39F40A2661F0232B242B252B21F44F
:1011500008950A2609F4A140A6958FEF811D811DEF
:10116000089597F99F6780E870E060E008959FEF29
:1011700080EC089500240A9416161706180609062E
:10118000089500240A9412161306140605060895FD
:10119000092E0394000C11F4882352F0BB0F40F485
:1011A000BF2B11F460FF04C06F5F7F4F8F4F9F4FC5
:1011B000089557FD9058440F551F59F05F3F71F047
:1011C0004795880F97FB991F61F09F3F79F08795AE
:1011D0000895121613061406551FF2CF4695F1DF37
:1011E00008C0161617061806991FF1CF86957105C7
:1011F000610508940895E894BB2766277727CB01FB
:1012000097F908950E948D0808F48FEF08950E94C1
:101210001A090C94C8080E94BA0838F00E94C10844
:1012200020F0952311F00C94B1080C94B708112408
:101230000C94FC080E94D90870F3959FC1F3950F98
:1012400050E0551F629FF001729FBB27F00DB11D4A
:10125000639FAA27F00DB11DAA1F649F6627B00DDA
:10126000A11D661F829F2227B00DA11D621F739FC3
:10127000B00DA11D621F839FA00D611D221F749FD1
:101280003327A00D611D231F849F600D211D822F18
:10129000762F6A2F11249F5750409AF0F1F088233F
:1012A0004AF0EE0FFF1FBB1F661F771F881F91506C
:1012B0005040A9F79E3F510580F00C94B1080C9462
:1012C000FC085F3FE4F3983ED4F3869577956795E5
:1012D000B795F795E7959F5FC1F7FE2B880F911D96
:0C12E0009695879597F90895F894FFCF34
:1012EC000000000200000000670000000000010088
:1012FC0000003132333435A4D082437BD49243A4E2
:10130C00D0A443719DAE430000C4430000DC43A451
:10131C00F0F64300D002440200010001000100017C
:0E132C00000100010060016B017601810100EB
:00000001FF
