:100000000C948B000C94AA000C94AA000C94AA00E7
:100010000C94AA000C94AA000C94AA000C94AA00B8
:100020000C94AA000C94AA000C94AA000C94AA00A8
:100030000C94AA000C9423010C94AA000C94AA001E
:100040000C94AA000C94AA000C94AA000C94AA0088
:100050000C94AA000C94AA000C94AA000C94AA0078
:100060000C94AA000C94AA000C94AA000C94AA0068
:100070000C94AA000C94AA000C94AA000C94AA0058
:100080000C94AA000C94AA000C94AA00CE021203AD
:1000900012031203120312031203120312031203B8
:1000A00012031203120312031203120312031203A8
:1000B0001203120312031203120312031203120398
:1000C0001203120312031203120312031203120388
:1000D00012030E031203120312031203120312037C
:1000E0000603120312031203120312030A03D202BD
:1000F000D602DA02DE02E202E602EA02EE02F202D0
:100100001203120312031203120312031203F60264
:10011000FA02FE02020311241FBECFEFD0E4DEBFBD
:10012000CDBF11E0A0E0B1E0E4E6FAE000E00BBFF3
:1001300002C007900D92A231B107D9F721E0A2E1E8
:10014000B1E001C01D92AE32B207E1F70E948E030A
:100150000C9430050C940000CF93DF9300D01F92D5
:10016000CDB7DEB789837B836A8389818A3031F496
:100170008A819B81BC018DE00E94AC0080EC90E004
:10018000FC018081882F90E080729927892BB1F340
:1001900086EC90E02981FC01208380E090E00F90C4
:1001A0000F900F90DF91CF910895CF93DF93CDB74C
:1001B000DEB781E890E02BE0FC01208388E890E046
:1001C0002DE730E0FC01318320838FE690E022E0D0
:1001D000FC01208384E890E0FC0111821082809170
:1001E0000E0190910F01A0911001B0911101809327
:1001F000130190931401A0931501B09316018FE59C
:1002000090E02FE530E0F90120812068FC01208397
:100210000000DF91CF910895CF93DF93CDB7DEB784
:1002200081E890E0FC0110820000DF91CF910895F9
:10023000CF93DF93CDB7DEB781E08093120100004A
:10024000DF91CF9108951F920F9200905F000F925F
:10025000112400905B000F922F933F934F935F9375
:100260006F937F938F939F93AF93BF93EF93FF937E
:10027000CF93DF93CDB7DEB7809113019091140136
:10028000A0911501B09116010197A109B1098093C0
:10029000130190931401A0931501B093160180915E
:1002A000130190911401A0911501B0911601892BB1
:1002B0008A2B8B2B91F40E94180180910E01909152
:1002C0000F01A0911001B09111018093130190933F
:1002D0001401A0931501B09316010000DF91CF9196
:1002E000FF91EF91BF91AF919F918F917F916F910E
:1002F0005F914F913F912F910F9000925B000F9073
:1003000000925F000F901F901895CF93DF9300D05D
:1003100000D0CDB7DEB769837A838B839C838981D4
:100320009A81AB81BC8180930E0190930F01A093C1
:100330001001B093110180910E0190910F01A091D5
:100340001001B09111018093130190931401A093B7
:100350001501B093160100000F900F900F900F90B1
:10036000DF91CF910895CF93DF9300D0CDB7DEB763
:1003700089836A838981882F90E02A81222F30E047
:1003800002C0959587952A95E2F78170992721E01B
:10039000892B09F420E0822F0F900F90DF91CF91ED
:1003A0000895CF93DF93CDB7DEB788E290E02FEECC
:1003B000FC012083000086E290E0FC01808160E087
:1003C0000E94B301882311F481E3B8C086E290E073
:1003D000FC01808161E00E94B301882311F484E371
:1003E000ADC086E290E0FC01808162E00E94B30132
:1003F000882311F487E3A2C086E290E0FC018081AB
:1004000063E00E94B301882311F48AE297C088E276
:1004100090E02FEDFC012083000086E290E0FC01DB
:10042000808160E00E94B301882311F482E386C0DA
:1004300086E290E0FC01808161E00E94B3018823A4
:1004400011F485E37BC086E290E0FC01808162E0EC
:100450000E94B301882311F488E370C086E290E023
:10046000FC01808163E00E94B301882311F480E3E2
:1004700065C088E290E02FEBFC012083000086E25B
:1004800090E0FC01808160E00E94B301882311F4B8
:1004900083E354C086E290E0FC01808161E00E9429
:1004A000B301882311F486E349C086E290E0FC01A1
:1004B000808162E00E94B301882311F489E33EC089
:1004C00086E290E0FC01808163E00E94B301882312
:1004D00011F483E233C088E290E02FE0FC01208336
:1004E000000086E290E0FC01808160E00E94B301A0
:1004F000882311F481E422C086E290E0FC0180812F
:1005000061E00E94B301882311F482E417C086E2FF
:1005100090E0FC01808162E00E94B301882311F425
:1005200083E40CC086E290E0FC01808163E00E94DD
:10053000B301882311F484E401C080E0DF91CF91FE
:100540000895CF93DF9300D0CDB7DEB79A83898328
:1005500089819A81892B19F41A82198203C01A821F
:100560001982000089819A81892B09F05CC00E9460
:10057000D101882F90E0092E000CAA0BBB0B40E0A4
:1005800050E024E430E0841B950B2817390708F469
:1005900049C08A5B9F4FFC010C9427058FE1809333
:1005A000170140C081E8809317013CC082E8809326
:1005B000170138C083E88093170134C084E8809322
:1005C000170130C085E8809317012CC086E880931E
:1005D000170128C087E88093170124C088E880931A
:1005E000170120C089E8809317011CC08AE8809316
:1005F000170118C08BE88093170114C08CE8809312
:10060000170110C08DE8809317010CC08EE880930D
:10061000170108C080E88093170104C08FE8809319
:1006200017010000000089819A810F900F90DF91DF
:10063000CF910895CF93DF9300D01F92CDB7DEB74F
:100640009B838A838A819B81892B19F41B821A825E
:1006500003C01B821A8200008A819B81892B21F4AE
:10066000809117018983000085E290E02981FC01D7
:1006700020838A819B810F900F900F90DF91CF9103
:100680000895CF93DF93CDB7DEB72C970FB6F894CC
:10069000DEBF0FBECDBF6D837E838F839887298792
:1006A0003A874B875C878D819E81AF81B88529858C
:1006B0003A854B855C85BC01CD010E940505DC01B6
:1006C000CB0189839A83AB83BC8389819A81AB8177
:1006D000BC81892B8A2B8B2B29F489859A85AB8544
:1006E000BC8511C089859A85AB85BC858D839E8329
:1006F000AF83B88789819A81AB81BC8189879A87CA
:10070000AB87BC87D0CFBC01CD012C960FB6F89437
:10071000DEBF0FBECDBFDF91CF9108950F931F9322
:10072000CF93DF93CDB7DEB72D970FB6F894DEBF2A
:100730000FBECDBF81E290E0FC01108282E290E02A
:100740002FEFFC01208384E290E02FEFFC01208357
:1007500085E290E0FC01108287E290E020EFFC014E
:10076000208388E290E02FE0FC01208388E191E083
:100770009B878A8783E291E09D878C8782E090E067
:1007800098878F838FEF898789858093180182E30B
:1007900090E0A0E0B0E08093190190931A01A0933B
:1007A0001B01B0931C018091190190911A01A09135
:1007B0001B01B0911C0180931D0190931E01A09319
:1007C0001F01B093200181EA92E09093220180936F
:1007D00021018985809323018AE090E0A0E0B0E0C8
:1007E0008093240190932501A0932601B0932701C3
:1007F0008091240190912501A0912601B0912701BB
:100800008093280190932901A0932A01B0932B0192
:100810008AE193E090932D0180932C018A859B853A
:10082000FC0181819281A381B4818B839C83AD8300
:10083000BE831A82198225C089819A81880F991FE7
:100840009E012F5F3F4F820F931F0996FC0180810D
:100850009181FC0121813281438154818B819C8172
:10086000AD81BE81BC01CD010E944103DC01CB0101
:100870008B839C83AD83BE8389819A8101969A8301
:10088000898329813A818F81988528173907A0F2B9
:100890008B819C81AD81BE81BC01CD010E9485010F
:1008A0000E94D5001A821982A0C089819A81880F7E
:1008B000991F9E012F5F3F4F820F931F0996FC01E6
:1008C00080819181FC012581368147815085898114
:1008D0009A81880F991FBE016F5F7F4F860F971F08
:1008E0000996FC0180819181FC0181819281A38123
:1008F000B481281739074A075B0709F045C0898189
:100900009A81880F991F9E012F5F3F4F820F931F7F
:100910000996FC010081118189819A81880F991FB4
:100920009E012F5F3F4F820F931F0996FC0180812C
:100930009181FC012185328589819A81880F991FD7
:10094000AE014F5F5F4F840F951F0996FC018081B8
:100950009181FC018081082E000C990BF901099509
:10096000F801808389819A81880F991F9E012F5FEA
:100970003F4F820F931F0996FC0180819181FC01FA
:10098000158216821782108689819A81880F991F95
:100990009E012F5F3F4F820F931F0996FC016081DC
:1009A000718189819A81880F991F9E012F5F3F4F26
:1009B000820F931F0996FC0180819181FC012581A2
:1009C0003681478150858B819C81AD81BE81820FAC
:1009D000931FA41FB51FFB0185839683A783B08750
:1009E00089819A8101969A83898329813A818F81AD
:1009F00098852817390708F458CF00008091120114
:100A00008823E1F3109212014DCFA1E21A2EAA1B06
:100A1000BB1BFD010DC0AA1FBB1FEE1FFF1FA217AE
:100A2000B307E407F50720F0A21BB30BE40BF50BAB
:100A3000661F771F881F991F1A9469F76095709534
:100A4000809590959B01AC01BD01CF010895EE0FFB
:100A5000FF1F0024001C0BBE0790F691E02D0994A7
:040A6000F894FFCF38
:100A64000000000200000000AC00000000000100D3
:020A7400000080
:00000001FF
