:100000000C944D000C946C000C946C000C946C00DF
:100010000C946C000C946C000C946C000C946C00B0
:100020000C946C000C946C000C946C000C946C00A0
:100030000C946C000C94E5000C946C000C946C0017
:100040000C946C000C946C000C946C000C946C0080
:100050000C946C000C946C000C946C000C946C0070
:100060000C946C000C946C000C946C000C946C0060
:100070000C946C000C946C000C946C000C946C0050
:100080000C946C000C946C000C946C005203B6033E
:10009000C6030E046A0382039F0311241FBECFEF21
:1000A000D0E4DEBFCDBF11E0A0E0B1E0E2E1F4E1D9
:1000B00000E00BBF02C007900D92A435B107D9F73D
:1000C00021E0A4E5B1E001C01D92A239B207E1F739
:1000D0000E9483060C94070A0C940000CF93DF93D0
:1000E00000D01F92CDB7DEB789837B836A83898175
:1000F0008A3031F48A819B81BC018DE00E946E00C0
:1001000080EC90E0FC018081882F90E0807299273C
:10011000892BB1F386EC90E02981FC01208380E0FB
:1001200090E00F900F900F90DF91CF910895CF93B3
:10013000DF93CDB7DEB781E890E02BE0FC012083B0
:1001400088E890E02DE730E0FC01318320838FE6E2
:1001500090E022E0FC01208384E890E0FC01118221
:10016000108280910E0190910F01A0911001B09129
:1001700011018093550190935601A0935701B093BC
:1001800058018FE590E02FE530E0F90120812068EB
:10019000FC0120830000DF91CF910895CF93DF937E
:1001A000CDB7DEB781E890E0FC0110820000DF915E
:1001B000CF910895CF93DF93CDB7DEB781E08093E1
:1001C00054010000DF91CF9108951F920F9200908B
:1001D0005F000F92112400905B000F922F933F93CA
:1001E0004F935F936F937F938F939F93AF93BF933F
:1001F000EF93FF93CF93DF93CDB7DEB78091550197
:1002000090915601A0915701B09158010197A10911
:10021000B1098093550190935601A0935701B09373
:1002200058018091550190915601A0915701B091CC
:100230005801892B8A2B8B2B91F40E94DA00809134
:100240000E0190910F01A0911001B09111018093C6
:10025000550190935601A0935701B09358010000A7
:10026000DF91CF91FF91EF91BF91AF919F918F91CE
:100270007F916F915F914F913F912F910F900092DD
:100280005B000F9000925F000F901F901895CF9326
:10029000DF9300D000D0CDB7DEB769837A838B833C
:1002A0009C8389819A81AB81BC8180930E0190935C
:1002B0000F01A0931001B093110180910E01909154
:1002C0000F01A0911001B0911101809355019093FD
:1002D0005601A0935701B093580100000F900F9062
:1002E0000F900F90DF91CF910895CF93DF9300D0BF
:1002F000CDB7DEB789836A838981882F90E02A8110
:10030000222F30E002C0959587952A95E2F78170FB
:10031000992721E0892B09F420E0822F0F900F907C
:10032000DF91CF9108950F931F93CF93DF9300D068
:1003300000D0CDB7DEB769837A838B839C838091AD
:100340005B0190915C01A0915D01B0915E019C0107
:10035000AD0169817A818B819C810E947308882319
:1003600009F477C020E030E0A90169817A818B81AE
:100370009C810E947308882351F481E990E021E96F
:1003800030E0F90120812870FC01208309C081E957
:1003900090E021E930E0F90120812360FC01208315
:1003A00028E539E344E75FE369817A818B819C81A9
:1003B0000E947308882344F488E990E02FEF3FEF10
:1003C000FC013183208334C020E034E244EF56E462
:1003D00069817A818B819C810E949509181634F479
:1003E00088E990E0FC011182108222C008E910E047
:1003F00020E030E040E053E469817A818B819C8188
:100400000E949A09DC01CB019C01AD0160E074E21D
:1004100084EF9AE40E947808DC01CB01BC01CD0195
:100420000E94EA08DC01CB010197F80191838083E7
:1004300084E990E0FC011182108289819A81AB816C
:10044000BC8180935B0190935C01A0935D01B093AC
:100450005E0100000F900F900F900F90DF91CF91F1
:100460001F910F910895CF93DF93CDB7DEB780E949
:1004700090E020E4FC01208381E990E02BE0FC0186
:10048000208360E070E0CB010E9493010000DF91C7
:10049000CF910895CF93DF93CDB7DEB780E990E099
:1004A000FC01108281E990E0FC0110820000DF91E4
:1004B000CF910895CF93DF93CDB7DEB788E290E078
:1004C0002FEEFC012083000086E290E0FC01808199
:1004D00060E00E947501882311F481E3B8C086E2D0
:1004E00090E0FC01808161E00E947501882311F495
:1004F00084E3ADC086E290E0FC01808162E00E946E
:100500007501882311F487E3A2C086E290E0FC0124
:10051000808163E00E947501882311F48AE297C00C
:1005200088E290E02FEDFC012083000086E290E05D
:10053000FC01808160E00E947501882311F482E350
:1005400086C086E290E0FC01808161E00E94750136
:10055000882311F485E37BC086E290E0FC01808172
:1005600062E00E947501882311F488E370C086E27E
:1005700090E0FC01808163E00E947501882311F402
:1005800080E365C088E290E02FEBFC01208300004F
:1005900086E290E0FC01808160E00E947501882382
:1005A00011F483E354C086E290E0FC01808161E0B5
:1005B0000E947501882311F486E349C086E290E029
:1005C000FC01808162E00E947501882311F489E3B7
:1005D0003EC086E290E0FC01808163E00E947501EC
:1005E000882311F483E233C088E290E02FE0FC011D
:1005F0002083000086E290E0FC01808160E00E94A0
:100600007501882311F481E422C086E290E0FC01A8
:10061000808161E00E947501882311F482E417C093
:1006200086E290E0FC01808162E00E9475018823EF
:1006300011F483E40CC086E290E0FC01808163E069
:100640000E947501882311F484E401C080E0DF91E9
:10065000CF910895CF93DF9300D01F92CDB7DEB72F
:100660009B838A830E945A0280935F0183E290E019
:10067000FC0180818095807889838A819B81092E05
:10068000000CAA0BBB0B40E050E026E030E0841BDE
:10069000950B2817390708F4DBC08A5B9F4FFC01D4
:1006A0000C946A0880915F01833229F481E090E024
:1006B0009B838A83D0C080915F018A3241F4898113
:1006C000803829F484E090E09B838A83C4C01B8235
:1006D0001A82C1C080915F01882341F489818823F7
:1006E00029F485E090E09B838A83B5C084E090E0A4
:1006F0009B838A8384E080931B0110921C011092DB
:100700006001A9C080915F01882329F485E090E011
:100710009B838A83A0C080916001882F90E0209104
:100720005F01895E9E4FFC012083809160018F5F95
:100730008093600186E090E09B838A838CC08091E7
:100740005F01882371F49091600180911B019817DB
:1007500018F01B821A827FC085E090E09B838A8319
:100760007AC086E090E09B838A8375C080915F01A8
:10077000882339F41092600182E090E09B838A83A1
:100780006AC081E090E09B838A8365C080915F01AD
:10079000833229F481E090E09B838A835CC080915E
:1007A0005F01882329F482E090E09B838A8353C011
:1007B00080911C018823C9F080916001882F90E00E
:1007C0008E5E9E4FFC01908180915F01981751F4DD
:1007D000809160018F5F8093600183E090E09B8354
:1007E0008A8339C01B821A8236C080916001882FAB
:1007F00090E0895E9E4FFC01908180915F01981787
:1008000051F4809160018F5F8093600183E090E0FC
:100810009B838A8320C01B821A821DC080915F0146
:10082000882389F49091600180911B01981730F022
:100830001B821A8281E0809359010DC082E090E012
:100840009B838A8308C083E090E09B838A8303C0F4
:100850001B821A8200008A819B810F900F900F905B
:10086000DF91CF910895CF93DF9300D01F92CDB742
:10087000DEB79B838A8383E290E0FC0180818095D0
:10088000807889838A819B81009719F0019761F0B4
:1008900016C08981803829F481E090E09B838A83A7
:1008A00011C01B821A820EC08981803829F481E030
:1008B00090E09B838A8306C01B821A8203C01B823E
:1008C0001A8200008A819B81009729F0019721F408
:1008D0001092590101C000008A819B810F900F90F6
:1008E0000F90DF91CF910895CF93DF93CDB7DEB70F
:1008F000CA54D1090FB6F894DEBF0FBECDBF80E257
:10090000EDE1F1E0DE01139601900D928A95E1F799
:1009100087E090E09A8389832EE0CE018396FC01E4
:10092000322F11923A95E9F781E090E09EA38DA3D2
:1009300082E090E098A78FA382E090E09CA78BA72D
:1009400082E090E09EA78DA78EE0EDE3F1E0DE016E
:10095000D19601900D928A95E1F721E030E0CE0129
:10096000CF96FC0131832083CE018F5B9F4FFC012A
:1009700011821082CE018D5B9F4FFC01118210828B
:10098000CE018B5B9F4FFC0111821082CE01895BEF
:100990009F4FFC0111821082CE01875B9F4FFC01AB
:1009A0001182108280916101882309F0A8C0809192
:1009B000620190916301880F991F9E012F5F3F4F45
:1009C000820F931FC096FC012081318180916401C8
:1009D000909165018217930760F580916201909173
:1009E0006301880F991F9E012F5F3F4F820F931F56
:1009F0008296FC0180819181880F991F880F991F31
:100A00009E012F5F3F4F820F931F0296FC01808152
:100A10009181A281B381BC01CD010E94930180919B
:100A20006401909165010196909365018093640142
:100A300066C0109265011092640189819A819C01BF
:100A400021503109809162019091630182179307CF
:100A500008F04AC08091620190916301880F991F4C
:100A60009E012F5F3F4F820F931FCE96FC01808126
:100A70009181892B21F081E08093610140C08091B8
:100A800062019091630101969093630180936201EA
:100A90008091620190916301880F991F9E012F5FE1
:100AA0003F4F820F931F8296FC0180819181880FB6
:100AB000991F880F991F9E012F5F3F4F820F931F31
:100AC0000296FC0180819181A281B381BC01CD019C
:100AD0000E94930180916401909165010196909329
:100AE0006501809364010BC010925A01109263015A
:100AF0001092620160E070E0CB010E94930180914E
:100B00006101882399F160E070E0CB010E949301BC
:100B100080916401909165010196909365018093A5
:100B200064018091620190916301880F991F9E0179
:100B30002F5F3F4F820F931FCE96FC0120813181A2
:100B400080916401909165012817390779F410921A
:100B5000610180916201909163010196909363011C
:100B60008093620110926501109264010000C65BDF
:100B7000DF4F0FB6F894DEBF0FBECDBFDF91CF9130
:100B80000895CF93DF9300D01F92CDB7DEB79B833C
:100B90008A8380E290E0FC0180818095807889835F
:100BA0008A819B81009719F0019779F01DC0898196
:100BB000882341F081E090E09B838A8381E08093E9
:100BC0005A0115C01B821A8212C08981882339F408
:100BD00080915A01882319F41B821A8208C081E08F
:100BE00090E09B838A8303C01B821A8200008A8163
:100BF0009B81009749F0019751F480915A01882315
:100C000029F00E94740402C0000001C000008A8123
:100C10009B810F900F900F90DF91CF910895CF930C
:100C2000DF9300D01F92CDB7DEB79B838A838A8182
:100C30009B81892B19F41B821A8203C01B821A82A2
:100C400000008A819B81892B21F48091590189833D
:100C5000000085E290E02981FC0120838A819B814C
:100C60000F900F900F90DF91CF910895CF93DF9366
:100C7000CDB7DEB72C970FB6F894DEBF0FBECDBF51
:100C80006D837E838F83988729873A874B875C871C
:100C90008D819E81AF81B88529853A854B855C859C
:100CA000BC01CD010E944808DC01CB0189839A83F5
:100CB000AB83BC8389819A81AB81BC81892B8A2BD0
:100CC0008B2B29F489859A85AB85BC8511C08985D4
:100CD0009A85AB85BC858D839E83AF83B8878981D8
:100CE0009A81AB81BC8189879A87AB87BC87D0CF3B
:100CF000BC01CD012C960FB6F894DEBF0FBECDBF60
:100D0000DF91CF9108950F931F93CF93DF93CDB7CA
:100D1000DEB761970FB6F894DEBF0FBECDBF81E29C
:100D200090E0FC01108282E290E02FEFFC01208332
:100D300084E290E02FE7FC01208385E290E020E848
:100D4000FC01208387E290E020EFFC01208388E211
:100D500090E02FE0FC01208388E0EBE4F1E0DE018D
:100D60001A9601900D928A95E1F784E090E09887B9
:100D70008F838FEF898789858093660182E390E076
:100D8000A0E0B0E08093670190936801A0936901AF
:100D9000B0936A018091670190916801A091690107
:100DA000B0916A0180936B0190936C01A0936D01E7
:100DB000B0936E018AE293E09093700180936F018B
:100DC00089858093710182E390E0A0E0B0E0809398
:100DD000720190937301A0937401B0937501809197
:100DE000720190917301A0917401B091750180938B
:100DF000760190937701A0937801B093790183E312
:100E000094E090937B0180937A01898580937C01A3
:100E100088EC90E0A0E0B0E080937D0190937E01AB
:100E2000A0937F01B093800180917D0190917E011C
:100E3000A0917F01B0918001809381019093820104
:100E4000A0938301B093840181EC95E09093860197
:100E5000809385018985809387018AE090E0A0E0F6
:100E6000B0E08093880190938901A0938A01B093A8
:100E70008B018091880190918901A0918A01B091A4
:100E80008B0180938C0190938D01A0938E01B09380
:100E90008F018FE096E090939101809390018A8575
:100EA0009B85FC0181819281A381B4818B839C838A
:100EB000AD83BE831A82198225C089819A81880FE9
:100EC000991F9E012F5F3F4F820F931F0996FC01D0
:100ED00080819181FC0121813281438154818B8108
:100EE0009C81AD81BE81BC01CD010E943606DC0132
:100EF000CB018B839C83AD83BE8389819A810196CC
:100F00009A83898329813A818F81988528173907A7
:100F1000A0F28B819C81AD81BE81BC01CD010E947C
:100F200047010E9497000E9433021A821982A0C0D2
:100F300089819A81880F991F9E012F5F3F4F820FF1
:100F4000931F0996FC0180819181FC0125813681E6
:100F50004781508589819A81880F991FBE016F5FF3
:100F60007F4F860F971F0996FC0180819181FC01BC
:100F700081819281A381B481281739074A075B07D1
:100F800009F045C089819A81880F991F9E012F5FC2
:100F90003F4F820F931F0996FC01008111818981C7
:100FA0009A81880F991F9E012F5F3F4F820F931FD9
:100FB0000996FC0180819181FC012185328589811E
:100FC0009A81880F991FAE014F5F5F4F840F951F65
:100FD0000996FC0180819181FC018081082E000C22
:100FE000990BF9010995F801808389819A81880F0D
:100FF000991F9E012F5F3F4F820F931F0996FC019F
:1010000080819181FC011582168217821086898168
:101010009A81880F991F9E012F5F3F4F820F931F68
:101020000996FC016081718189819A81880F991FDD
:101030009E012F5F3F4F820F931F0996FC01808115
:101040009181FC0125813681478150858B819C816E
:10105000AD81BE81820F931FA41FB51FFB01858345
:101060009683A783B08789819A8101969A83898321
:1010700029813A818F8198852817390708F458CF3C
:101080000000809154018823E1F3109254014DCF68
:10109000A1E21A2EAA1BBB1BFD010DC0AA1FBB1F7C
:1010A000EE1FFF1FA217B307E407F50720F0A21BEE
:1010B000B30BE40BF50B661F771F881F991F1A945B
:1010C00069F760957095809590959B01AC01BD0185
:1010D000CF010895EE0FFF1F0024001C0BBE0790E8
:1010E000F691E02D09940E94200908F481E008950A
:1010F0000E948C080C945B090E94540958F00E94CD
:101100004D0940F029F45F3F29F00C944409511136
:101110000C948F090C944A090E946C0968F3992376
:10112000B1F3552391F3951B550BBB27AA276217E3
:101130007307840738F09F5F5F4F220F331F441FF0
:10114000AA1FA9F335D00E2E3AF0E0E832D0915024
:101150005040E695001CCAF72BD0FE2F29D0660F11
:10116000771F881FBB1F261737074807AB07B0E854
:1011700009F0BB0B802DBF01FF2793585F4F3AF05A
:101180009E3F510578F00C9444090C948F095F3F01
:10119000E4F3983ED4F3869577956795B795F795E0
:1011A0009F5FC9F7880F911D9695879597F90895C8
:1011B000E1E0660F771F881FBB1F62177307840764
:1011C000BA0720F0621B730B840BBA0BEE1F88F773
:1011D000E09508950E94F1086894B1110C948F096C
:1011E00008950E94740988F09F5798F0B92F9927A5
:1011F000B751B0F0E1F0660F771F881F991F1AF002
:10120000BA95C9F714C0B13091F00E948E09B1E0CF
:1012100008950C948E09672F782F8827B85F39F0CE
:10122000B93FCCF3869577956795B395D9F73EF49A
:1012300090958095709561957F4F8F4F9F4F089542
:10124000990F0008550FAA0BE0E8FEEF16161706D7
:10125000E807F907C0F012161306E407F50798F03F
:10126000621B730B840B950B39F40A2661F0232B58
:10127000242B252B21F408950A2609F4A140A695D4
:101280008FEF811D811D089597F99F6780E870E0B9
:1012900060E008959FEF80EC089500240A941616EC
:1012A000170618060906089500240A941216130654
:1012B000140605060895092E0394000C11F48823E2
:1012C00052F0BB0F40F4BF2B11F460FF04C06F5FFE
:1012D0007F4F8F4F9F4F089557FD9058440F551FD4
:1012E00059F05F3F71F04795880F97FB991F61F0A8
:1012F0009F3F79F087950895121613061406551F1F
:10130000F2CF4695F1DF08C0161617061806991F8A
:10131000F1CF86957105610508940895E894BB277F
:1013200066277727CB0197F908950E94200908F4D2
:101330008FEF08950E94AD090C945B090E944D093E
:1013400038F00E94540920F0952311F00C944409C0
:101350000C944A0911240C948F090E946C0970F3B3
:10136000959FC1F3950F50E0551F629FF001729F4A
:10137000BB27F00DB11D639FAA27F00DB11DAA1F59
:10138000649F6627B00DA11D661F829F2227B00DA6
:10139000A11D621F739FB00DA11D621F839FA00D31
:1013A000611D221F749F3327A00D611D231F849F81
:1013B000600D211D822F762F6A2F11249F575040D8
:1013C0009AF0F1F088234AF0EE0FFF1FBB1F661F53
:1013D000771F881F91505040A9F79E3F510580F01C
:1013E0000C9444090C948F095F3FE4F3983ED4F3C6
:1013F000869577956795B795F795E7959F5FC1F7C0
:10140000FE2B880F911D9695879597F90895F8946E
:02141000FFCF0C
:1014120000000002000000006E0000000000010059
:1014220000003132333435300000000501A4D0828F
:10143200437BD49243A4D0A443719DAE430000C425
:10144200430000DC43A4F0F64300D0024402000152
:101452000001000100010001000100660171017C30
:0414620001870100FD
:00000001FF
